{
  "contractName": "CrowdFunding",
  "abi": [
    {
      "constant": true,
      "inputs": [
        {
          "name": "",
          "type": "uint256"
        }
      ],
      "name": "TestList",
      "outputs": [
        {
          "name": "",
          "type": "bytes32"
        }
      ],
      "payable": false,
      "stateMutability": "view",
      "type": "function"
    },
    {
      "constant": true,
      "inputs": [
        {
          "name": "",
          "type": "bytes32"
        }
      ],
      "name": "count",
      "outputs": [
        {
          "name": "",
          "type": "uint8"
        }
      ],
      "payable": false,
      "stateMutability": "view",
      "type": "function"
    },
    {
      "inputs": [
        {
          "name": "Elements",
          "type": "bytes32[]"
        }
      ],
      "payable": false,
      "stateMutability": "nonpayable",
      "type": "constructor"
    },
    {
      "constant": true,
      "inputs": [
        {
          "name": "element",
          "type": "bytes32"
        }
      ],
      "name": "totalCountFor",
      "outputs": [
        {
          "name": "",
          "type": "uint8"
        }
      ],
      "payable": false,
      "stateMutability": "view",
      "type": "function"
    },
    {
      "constant": false,
      "inputs": [
        {
          "name": "element",
          "type": "bytes32"
        }
      ],
      "name": "CountForItems",
      "outputs": [],
      "payable": false,
      "stateMutability": "nonpayable",
      "type": "function"
    }
  ],
  "bytecode": "0x608060405234801561001057600080fd5b50604051610337380380610337833981018060405281019080805182019291905050508060019080519060200190610049929190610050565b50506100c8565b828054828255906000526020600020908101928215610092579160200282015b82811115610091578251829060001916905591602001919060010190610070565b5b50905061009f91906100a3565b5090565b6100c591905b808211156100c15760008160009055506001016100a9565b5090565b90565b610260806100d76000396000f300608060405260043610610062576000357c0100000000000000000000000000000000000000000000000000000000900463ffffffff16806337f90d58146100675780634b2dfa71146100b2578063623dbff8146100fb5780637937354c1461012c575b600080fd5b34801561007357600080fd5b506100966004803603810190808035600019169060200190929190505050610177565b604051808260ff1660ff16815260200191505060405180910390f35b3480156100be57600080fd5b506100dd600480360381019080803590602001909291905050506101a8565b60405180826000191660001916815260200191505060405180910390f35b34801561010757600080fd5b5061012a60048036038101908080356000191690602001909291905050506101cb565b005b34801561013857600080fd5b5061015b6004803603810190808035600019169060200190929190505050610214565b604051808260ff1660ff16815260200191505060405180910390f35b6000806000836000191660001916815260200190815260200160002060009054906101000a900460ff169050919050565b6001818154811015156101b757fe5b906000526020600020016000915090505481565b6001600080836000191660001916815260200190815260200160002060008282829054906101000a900460ff160192506101000a81548160ff021916908360ff16021790555050565b60006020528060005260406000206000915054906101000a900460ff16815600a165627a7a72305820df33fb0e7b3d976760abaf4abe28fdd9fffc95456f12ada7f68d1f3c1a968dd50029",
  "source": "pragma solidity ^0.4.24;\n\ncontract CrowdFunding\n{\n    mapping (bytes32 => uint8) public count;\n     \n    bytes32[] public TestList;\n\n    function CrowdFunding(bytes32[] Elements) public {\n        TestList = Elements;\n    }\n\n    function totalCountFor(bytes32 element) view public returns (uint8) {\n        return count[element];\n    }\n\n    function CountForItems(bytes32 element) public {\n        count[element] += 1;\n    }\n}",
  "sourcePath": "/Users/arghyabhattacharya/Documents/college/Blockchain/CrowdFunding/dir/contracts/crowdfunding.sol",
  "compiler": {
    "name": "solc",
    "version": "0.4.24+commit.e67f0147.Emscripten.clang"
  },
  "schemaVersion": "2.0.1",
  "updatedAt": "2018-11-05T21:50:25.735Z"
}